:400000000080002011000000950400009504000008B5044B1A6803F53F5302331A6000F041FA00BFFA46004010B5054C237833B9044B13B10448AFF300800123237010BD0A
:400040004081FF1F00000000F80A0000084B10B51BB108490848AFF300800848036803B910BD074B002BFBD0BDE81040184700BF000000004481FF1FF80A0000C880FF1F0E
:400080000000000008B500F0A1F800F0E1FB012000F092FB08BD00BF08B500F0ABFC0122014B1A7008BD00BF5C81FF1F10B50446012000F081FB0021012000F0D7FBA0B24E
:4000C00000F0F2FB10BD00BF10B50446012000F073FB0021084600F0C9FB204600F05EFB0021012000F0C2FB024B586880B200F0DBFB10BD5C81FF1F08B5084B1B7813F0D5
:40010000FF0F01D1FFF7C8FF0548FFF7DDFF012000F05AFA012000F063FA08BD5C81FF1FFC0A000008B50548FFF7CEFF012000F063FA012000F06CFA08BD00BF040B000025
:4001400008B5002000F040FA002000F049FA002000F052FA002000F05BFA08BD10B562B6FFF790FF002400F0FFFB10F0800F12D0154B1B78DBB2012B0DD1B4F57A7F02D2BE
:400180000134A4B207E0104B5A680A325A605868FFF78CFF002400F0FFF9012801D1FFF7ABFF00F001FA012801D1FFF7BBFF00F003FA012805D1044B00245C601C7000F0A5
:4001C000B9FBFFF7BDFFCEE75C81FF1F08B5012000F01EFC012000F027FC012000F030FC08BD00BFFEE700BFF0B40022174611E050F82760F3B226F0FF0608E001EB4205AA
:4002000011F812406D78A5550132013BDBB2002BF4D101371E2FEBD9F0BC70470A4B1B78DBB203F00701094A11701B09013213708023A2F26272137002F6F312137044225A
:40024000034B1A70704700BFCF0100496E5800407658004008B50A46002100F044FC08BD08B500F035FC08BD38B50024324B1C80502202331A70092202331A8018232F4A34
:4002800013704FF49C71023211800232137004222B492C48FFF7E4FF02222B4B1A7008224FF040231A70032103F500731970274B1B78DBB226490B70264B1A8041F2512249
:4002C000023B1A8019250CE0234B1B7803F0010343EA440404F003044FF4F07000F0BCFB013D0DB1032CEFD115B90320FFF77AFF1A4B4FF480721A8007221A700022184996
:400300000A704820023108701A700222033B1A7004220A331A70134A137843F007031370013A137843F001031370013A137843F08003137038BD00BF8040004086400040EC
:400340002C050048004100400043004008010049A146004022420040254200400440004006400040A243004038B572B6334A137843F00403137000240BE0314863001A1915
:40038000510001440A46098AD068FFF763FF0134E4B2062CF1D92B494FF09040FFF724FF0A24294B1C70294A137843F0020313701032137843F002031370254D2B7843F01A
:4003C00040032B70A2F58632513A137843F01003137008221F492048FFF742FF08221F491F48FFF73DFF22461E491F48FFF738FF22461E491E48FFF733FF08221D491E48DF
:40040000FFF72EFF22461D491D48FFF729FF1D4A137843F0080313701B4C61232370FFF723FF812323700122184B1A70FFF7F6FE0E2229461648FFF713FF38BDE846004066
:400440000C0B00007C0000488358004003500140A0430040F004004802510040F8040048C251004000050048F05100400C050048105100401805004822510040200500481C
:4004800030510040224300400048004004000840B043004008B500F0EFFA03680C2B00D1FEE7FEE708B5104E104D16E029686B68AC68002204E051F8040B43F8040B043238
:4004C000A242F8D1E868002203E0002143F8041B04328242F9D11035013E002EE6D100F0D1FAFFF73BFEFEE701000000680B000008B5104A104B1A60104A136843F40073A4
:40050000136000230AE0032B03D80D4A52F8231000E00C490C4A42F8231001332F2BF2D90A4B1A780A4B1A70074A0A4B1A60FFF71BFF08BD0004FA050CED00E014ED00E095
:4005400000000000950400000080FF1FBC760040C080FF1F08ED00E010B5044605E0084B186800F079FAA4F50044B4F5004FF6D8034B586800FB04F000F06EFA10BD00BFF1
:40058000CC80FF1F08B5034B1B7A00FB03F000F063FA08BDCC80FF1F024B1878C0F34010704700BFC1510040024B1878C0F30010704700BFC1510040024B1878C0F3C00067
:4005C000704700BFC1510040044A137803F0FE0300F0010018431070704700BF00510040044A137803F0FD03400000F0020018431070704700510040044A137803F0DF03C4
:40060000400100F0200018431070704700510040044A137803F0BF03800100F040001843107070470051004010B50B4C237803F09F032370237803F0F003237023781843FB
:4006400040F0100020700120FFF79CFF237803F0EF03237010BD00BF2051004038B505460E4C237843F020032370237803F0BF0323700020FFF786FF237803F0F003237000
:4006800023781D4345F0100525700120FFF77AFF237803F0EF03237038BD00BF2051004070B5354B1A7802F08002D2B21A7033490A7802F0F00242F00F020A7001310A784C
:4006C00002F0F0020A7001310A7802F0F0020A701A7802F0DF021A701A7842F040021A704FF4CA760020FFF74DFF234D2B7843F010032B700120FFF745FF214B1C78E4B241
:400700002B7803F0EF032B700020FFF73BFF04F00804E4B22B7843F010032B700120FFF731FF2B7803F0EF032B7014B90A20FFF729FF013E0CB1002ED4D10F4A137803F007
:40074000BF031370137803F08003DBB213700232137803F0F00313700132137803F0F00343F00F0313700132137803F0F00343F00F03137070BD00BF2051004022510040D3
:400780002151004010B50446FFF78AFF2009FFF765FF04F00F00FFF761FF10BD38B505460078012404E0FFF7EDFF285D0134E4B20028F8D138BD00BF10B50446FFF770FF4C
:4007C0002009FFF731FF04F00F00FFF72DFF10BD08B52820FFF7C0FE0320FFF725FF0520FFF7BAFE0320FFF71FFF0F20FFF7B4FE0320FFF719FF0120FFF7AEFE0220FFF7D5
:4008000013FF0520FFF7A8FE0620FFF7D5FF0E20FFF7D2FF2C20FFF7CFFF0820FFF7CCFF0120FFF7C9FF0C20FFF7C6FF0320FFF7C3FF0520FFF790FE08BD00BF08B50C2050
:40084000FFF7BAFF0122014B1A7008BD6481FF1F08B5054B5B7823B9FFF7BAFF0122024B5A70FFF7EBFF08BD6481FF1F08B5032819D8DFE800F002070D1381F08000FFF71B
:400880009BFF08BDA1F14000C0B2FFF795FF08BDA1F16C00C0B2FFF78FFF08BDA1F12C00C0B2FFF789FF08BD10B584B000238DF80E30092211E0144BA3FB0013DB081C46CA
:4008C00003EB83035900431ADBB2303304A9114401F80C3C2046013AD2B20928EBD80A4BA3FB0013DB0803EB83035900431ADBB2303304A9114401F80C3C01AB9818FFF7EA
:400900004DFF04B010BD00BFCDCCCCCC084A137843F0010313701032137843F00103137002F64D32137843F001031370704700BFA3430040084A137803F0FE031370A2F698
:400940005D32137803F0FE0313701032137803F0FE031370704700BF004F0040014B1870704700BF034F0040014B1878704700BF034F0040014B1880704700BF044F0040F0
:40098000014B1880704700BF064F004008B5164A137803F0010313700232137803F0FC031370124B1A7802F0CF021A701A7842F030021A701A7802F0F0021A701A7842F072
:4009C0000F021A700A4A137843F00103137045F6BF50FFF7CFFF45F6BF50FFF7D1FF0020FFF7BCFF08BD00BF004F00400B4F0040014F004008B5054B1B7823B9FFF7C6FF60
:400A00000122024B1A70FFF781FF08BD6681FF1F044A137803F0FD03400000F0020018431070704730510040044A137803F0F703C00000F00800184310707047305100405A
:400A4000044A137803F0EF03000100F01000184310707047305100400230800803D000BF01380046FCD17047EFF3108072B6704780F31088704700BF014B1868704700BF01
:400A80003C81FF1F0E4B70B51E460E4C0025E41AA410A54204D056F8253098470135F8E700F050F8084B094C1E46E41AA4100025A54204D056F8253098470135F8E770BD5C
:400AC000500B0000500B0000500B0000580B000010B5431E0A44914204D011F8014B03F8014FF8E710BD03460244934202D003F8011BFAE770470000000000004A756D709A
:400B0000000000004475636B00000000035B00402443004040000000004F00400C0040510040300000000140001000140140000800400140000A004C0140000200500140B4
:400B400020004300F8B500BFF8BC08BC9E4670474D000000F1040000F8B500BFF8BC08BC9E46704729000000780B0000C880FF1F7800000028000000000000000000E02E12
:400B8000C05D00001800000000366E010000000000000000000000000000000000000000000000000000000000000000420B0000000000000000000000000000000000000E
:400BC0000000000000000000000000000000000000000000000000000000000000000000000000000000000000000000DC80FF1F000000000000000000000000000000007B
:400C000000000000000000000000000000000000000000000000000000000000000000000000000000000000000000000000000000000000000000000000000000000000B4
:400C40000000000000000000000000000000000000000000000000000000000000000000000000000000000000000000000000000000000000000000000000000000000074
:400C80000000000000000000000000000000000000000000000000000000000000000000000000000000000000000000000000000000000000000000000000000000000034
:400CC00000000000000000000000000000000000000000000000000000000000000000000000000000000000000000000000000000000000000000000000000000000000F4
:020000040003F7
:0200000480007A
:40000000024F00400352004002640040026500404302014021030140010501405E08014033090140010D0140040E0140030F01400115014001170140551801404519014005
:400040002F1A0140371B0140024001400641014006420140014301400444014002460140014701400548014001490140084C0140064D0140055001400151014001800A4B6E
:40008000000409400C80830D890F89388A7216012E0134014060410249FF4AFF4BFF4DA04F04501858045A045C015D015F01604062C06440654066C068C06AC06CC06EC0EF
:4000C00086028F019201A101A204AA02B004B202B401B701BE04C020C106C5D0C601C702C816C9FFCAFFCBFFCDAFCE0FCF04D018D280D405D804D904DA04DB04DC11DD1135
:40010000DF01E040E2C0E440E540E6C0E8C0EAC0ECC0EEC0000409020F20108012041580180419061B101F2022402902398040044604480849014F2050885140520459056A
:400140005A807102C004C228C48ACA01CE08D024D224D60BEE08AB20005C020208090A10120316201C6C1E112070220C24142810301F326038083E044003470449FF4A07C4
:400180004BFF4C404D204EF04F05500858045A045C025D025F01604061A862406320810C820983108406850188068B148C098D0C8F30900491019202950198109A019C0960
:4001C0009D289F10A102A601A720A802A90CAA04AB10B001B13CB218B302B406B501B808BB02BE01BF04C053C104C50CC60EC70BC815C9FFCAFFCBFFCEF0CF44D00CD4011D
:40020000D804D904DA04DB04DC22DD22DF01E6C0EA40EB020104020203440420074008C009110C400E820F2110181230150A1604182819081A401D081E801F01210122067A
:40024000234429092A102B80334539043A203B414080422045084A2251045380551056245710581059015A48C05FC2BBC476CA07CC0BCE0FD043D208D60FAF20B820BE1026
:40028000D804DF011D101F208D10EC10E601000602010A060B0311011205130616011B0C1D0C1E031F032101230E2A022B08310F36073A803B02580459045C225F01801333
:4002C000810882608604870488708C0B900B960B97059A039E0BA042A210A470A821AA10AE04AF02B003B208B301B404B508B670B706B808BE10BF50C023C104C205C401F9
:40030000C5C0C7E0C822C9FFCAFFCBFFCC62CDA0CEF0CF41D00CD418D604D804D904DA04DB04DC22DD22DF01E640E702E910EA30EB10ED10EE10EF120040010803840420E1
:40034000052007400820090A0A010B040D010E020F2010081106120115101604180419491B801E021F40200122202310274029402D102F40300835203602374038083B028B
:400380003F204061420449024B405201590160868080850286048A2090289102930695049A049F45A202A310A408A501A601C05FC2BFC44FCAA8CCB2CE23D00FD208D60160
:4003C000D80D0003010404330518060C0B040C3F0D3F10021340141C153C162317021A231B231C1F1D101E202008234024042508280C29272B182C012D1C2F213138321093
:40040000331F340F3540362C3AA23B083E043F1056025712580459045B045C225D205F0100440380081009090A010B041140132A184419641A0521082221234029622A084F
:4004400030903108320138483A023B10590469046B0570847208732A8002822091409314944095049605974099029A029C029F05A101A380A508B008B404B541B602C00DB3
:40048000C20FC40FCA0FCC0FCE0FD602EC103240CC1057809680A301AF01D440EE1063029680A301AB80D640EE2096807C208C20DE01E0024508D001A5082510824096802D
:4004C000C820E680B5100C200E0860808880A508C201D802E004B020B508B604EA02EC08EE04000608020C0410041C040003000000676700040080003C0000000000000093
:400500000100000100000000000000004000804B4B00400000000000007F7F0000000000E00000E01A0000000000000025001801000000000000000000000000000000000D
:40054000000000000000000000000000000000000000000000000000000000000000000000000000000000000000000000000000000000000000000000000000000000007B
:40058000000000000000000000000000000000000000000000000000000000000000000000000000000000000000000000000000000000000000000000000000000000003B
:4005C00000000000000000000000000000000000000000000000000000000000000000000000000000000000000000000000000000000000000000000000000000000000FB
:4006000000000000000000000000000000000000000000000000000000000000000000000000000000000000000000000000000000000000000000000000000000000000BA
:0200000490006A
:0400000000004005B7
:0200000490105A
:04000000BC90ACAF55
:0200000490303A
:02000000AE5000
:0200000490402A
:4000000000000000000000000000000000000000000000000000000000000000000000000000000000000000000000000000000000000000000000000000000000000000C0
:400040000000000000000000000000000000000000000000000000000000000000000000000000000000000000000000000000000000000000000000000000000000000080
:400080000000000000000000000000000000000000000000000000000000000000000000000000000000000000000000000000000000000000000000000000000000000040
:4000C0000000000000000000000000000000000000000000000000000000000000000000000000000000000000000000000000000000000000000000000000000000000000
:0200000490501A
:0C00000000012E16106900012E1BBEB975
:00000001FF